:100000000C942A000C9447000C9447000C94470071
:100010000C9447000C9447000C9447000C94470044
:100020000C9447000C9447000C94E0130C94470088
:100030000C9447000C9447000C9447000C94470024
:100040000C9447000C9447000C9447000C94470014
:100050000C94470011241FBECFE5D8E0DEBFCDBF12
:1000600010E0A0E6B0E0EEEFFDE202C005900D92D8
:10007000A437B107D9F710E0A4E7B0E001C01D92A2
:10008000A23AB107E1F70E94A2130C94FD160C945A
:100090000000EF92FF920F931F937B018C0120E0F1
:1000A00030E040E05FE40E94F50388238CF0C80153
:1000B000B70120E030E040E05FE40E94C1010E940F
:1000C00055049B01AC01205030404040504806C0D0
:1000D000C801B7010E9455049B01AC01B901CA01D6
:1000E0001F910F91FF90EF900895A0E0B0E0EBE733
:1000F000F0E00C949516DC012B01FA019C919230F2
:1001000008F439C1EB018881823008F433C194309E
:1001100069F4843009F02FC111969C91119789815F
:10012000981709F428C1A0E6B0E025C1843009F48D
:1001300021C18230A9F4923009F01DC19A01AD01AC
:1001400088E0EA010990AE01E90109929E0181501F
:10015000C1F7E201898111969C918923818308C1AD
:10016000923009F407C112962D903C901397EB0141
:100170008A819B811496AD90BD90CD90DC901797AD
:10018000EC80FD800E811F819101281B390BB90184
:1001900037FF04C066277727621B730B6032710537
:1001A0000CF061C0121613066CF537014801062EDB
:1001B00004C096948794779467940A94D2F721E0C8
:1001C00030E040E050E004C0220F331F441F551FB1
:1001D0006A95D2F721503040404050402E213F21B7
:1001E00040235123211531054105510521F021E01E
:1001F00030E040E050E079018A01E628F72808293C
:1002000019293CC0232BD1F1260E371E350146019A
:10021000062E04C096948794779467940A94D2F734
:1002200021E030E040E050E004C0220F331F441FC3
:10023000551F6A95D2F721503040404050402A2146
:100240003B214C215D21211531054105510521F04E
:1002500021E030E040E050E059016A01A628B728CB
:10026000C828D9280BC0821593052CF01C01AA249C
:10027000BB24650103C0EE24FF24870111969C91E5
:10028000D20111968C91981709F445C0992339F041
:10029000A80197012A193B094C095D0906C0A6016E
:1002A00095012E193F09400B510B57FD08C01182D3
:1002B0003382228224833583468357831DC081E0A5
:1002C00081833382228288279927DC01821B930B4A
:1002D000A40BB50B84839583A683B7830DC0220F2F
:1002E000331F441F551F24833583468357838281E0
:1002F000938101979383828324813581468157813D
:10030000DA01C9010197A109B1098F5F9F4FAF4F72
:10031000BF4328F30BC0918333822282EA0CFB1C7B
:100320000C1D1D1DE482F5820683178383E0808304
:10033000248135814681578157FF1AC0C901AA27F8
:1003400097FDA095BA2F81709070A070B0705695EF
:10035000479537952795822B932BA42BB52B848318
:100360009583A683B7838281938101969383828349
:10037000DF0101C0D201CD01CDB7DEB7E2E10C94BF
:10038000B116A0E2B0E0E7ECF1E00C94A1166983AD
:100390007A838B839C832D833E834F835887E9E048
:1003A000EE2EF12CEC0EFD1ECE010196B7010E943F
:1003B0007E058E010F5E1F4FCE010596B8010E948B
:1003C0007E058A8991E089278A8BC701B801AE0131
:1003D000475E5F4F0E9475000E94A904A096E6E068
:1003E0000C94BD16A0E2B0E0E8EFF1E00C94A11689
:1003F00069837A838B839C832D833E834F835887C5
:10040000F9E0EF2EF12CEC0EFD1ECE010196B701A6
:100410000E947E058E010F5E1F4FCE010596B8012A
:100420000E947E05C701B801AE01475E5F4F0E9482
:1004300075000E94A904A096E6E00C94BD16A0E207
:10044000B0E0E5E2F2E00C94951669837A838B8341
:100450009C832D833E834F835887CE010196BE0136
:10046000675F7F4F0E947E05CE010596BE016F5EDD
:100470007F4F0E947E059985923088F0898982306D
:10048000C8F0943019F4823051F404C0843029F457
:10049000923081F480E690E0C6C0923049F420E0CA
:1004A0009A858A89981321E02A87CE010996BBC0D4
:1004B000823049F420E09A858A89981321E02A8BBA
:1004C000CE014196B0C02D843E844F8458886D88FB
:1004D0007E888F88988CEE24FF248701AA24BB2471
:1004E000650140E050E060E070E0E0E0F0E0C10174
:1004F00081709070892BE9F0E60CF71C081D191D1E
:100500009A01AB012A0D3B1D4C1D5D1D80E090E062
:10051000A0E0B0E0E614F7040805190520F481E036
:1005200090E0A0E0B0E0BA01A901480F591F6A1F8E
:100530007B1FAA0CBB1CCC1CDD1C97FE08C081E0F5
:1005400090E0A0E0B0E0A82AB92ACA2ADB2A3196B6
:10055000E032F10549F0660C771C881C991C569412
:10056000479437942794C3CFFA85EA892B893C892D
:100570008B859C85280F391F2E5F3F4F17C0CA01FE
:1005800081709070892B61F016950795F794E79428
:1005900080E090E0A0E0B0E8E82AF92A0A2B1B2BC3
:1005A00076956795579547952F5F3F4F77FDE7CF36
:1005B0000CC0440F551F661F771F17FD4160EE0CDE
:1005C000FF1C001F111F21503040403090E05907A0
:1005D00090E0690790E4790760F32B8F3C8FDB0193
:1005E000CA018F779070A070B07080349105A1051A
:1005F000B10561F447FD0AC0E114F10401051105DC
:1006000029F0405C5F4F6F4F7F4F40781A8EFE1786
:1006100011F081E08A8F4D8F5E8F6F8F78A383E01A
:10062000898FCE0149960E94A904A096E2E10C941C
:10063000B116A8E1B0E0EFE1F3E00C949D166983F8
:100640007A838B839C832D833E834F835887B9E0C5
:10065000EB2EF12CEC0EFD1ECE010196B7010E948F
:100660007E058E010F5E1F4FCE010596B8010E94D8
:100670007E052985223008F47EC03989323010F495
:10068000B8017CC08A859A8989278A87243011F02D
:10069000223031F4231709F06EC060E670E06EC0BE
:1006A000343039F41D861E861F86188A1C861B86E8
:1006B00004C0323021F484E08987B7015FC02B8504
:1006C0003C858B899C89281B390B3C872B87ED84C3
:1006D000FE840F851889AD88BE88CF88D88CEA142F
:1006E000FB040C051D0540F4EE0CFF1C001F111F40
:1006F000215030403C872B8720E030E040E050E044
:1007000080E090E0A0E0B0E460E070E0EA14FB0478
:100710000C051D0540F0282B392B4A2B5B2BEA18C2
:10072000FB080C091D09B695A79597958795EE0CC2
:10073000FF1C001F111F6F5F7F4F6F31710531F775
:10074000DA01C9018F779070A070B0708034910584
:10075000A105B10561F427FD0AC0E114F10401050A
:10076000110529F0205C3F4F4F4F5F4F20782D87B8
:100770003E874F87588BBE01675F7F4FCB010E943A
:10078000A9046896EAE00C94B916A8E1B0E0EBEC95
:10079000F3E00C94A11669837A838B839C832D8369
:1007A0003E834F83588789E0E82EF12CEC0EFD1E26
:1007B000CE010196B7010E947E058E010F5E1F4F8C
:1007C000CE010596B8010E947E058985823040F0F1
:1007D0008989823028F0C701B8010E94F60501C05E
:1007E0008FEF6896E6E00C94BD16A8E1B0E0EBEF61
:1007F000F3E00C94A11669837A838B839C832D8309
:100800003E834F83588789E0E82EF12CEC0EFD1EC5
:10081000CE010196B7010E947E058E010F5E1F4F2B
:10082000CE010596B8010E947E058985823040F090
:100830008989823028F0C701B8010E94F60501C0FD
:100840008FEF6896E6E00C94BD16A8E1B0E0EBE20D
:10085000F4E00C94A11669837A838B839C832D83A7
:100860003E834F83588789E0E82EF12CEC0EFD1E65
:10087000CE010196B7010E947E058E010F5E1F4FCB
:10088000CE010596B8010E947E058985823040F030
:100890008989823028F0C701B8010E94F60501C09D
:1008A00081E06896E6E00C94BD16ACE0B0E0EBE5C4
:1008B000F4E00C94A51669837A838B839C83CE0124
:1008C0000196BE016B5F7F4F0E947E058D81823055
:1008D00061F1823050F1843021F48E81882351F10E
:1008E0002EC02F81388537FD20C06E812F31310514
:1008F0001CF06623F9F023C08EE190E0821B930B7D
:1009000029853A854B855C8504C056954795379572
:1009100027958A95D2F76623B1F05095409530958A
:1009200021953F4F4F4F5F4F0EC020E030E040E039
:1009300050E009C02FEF3FEF4FEF5FE704C020E02A
:1009400030E040E050E8B901CA012C96E2E00C9496
:10095000C116DF92EF92FF920F931F93FC01E48088
:10096000F58006811781D1808081823048F480E053
:1009700090E0A0E1B0E0E82AF92A0A2B1B2BA5C0E1
:10098000843009F49FC0823021F4EE24FF248701D3
:1009900005C0E114F1040105110519F4E0E0F0E0EF
:1009A00096C0628173819FEF623879070CF05BC05B
:1009B00022E83FEF261B370B2A3131052CF020E0CF
:1009C00030E040E050E02AC0B801A701022E04C088
:1009D00076956795579547950A94D2F781E090E010
:1009E000A0E0B0E004C0880F991FAA1FBB1F2A9582
:1009F000D2F70197A109B1098E219F21A023B1232C
:100A00000097A105B10521F081E090E0A0E0B0E001
:100A10009A01AB01282B392B4A2B5B2BDA01C90138
:100A20008F779070A070B07080349105A105B105EA
:100A300039F427FF09C0205C3F4F4F4F5F4F04C080
:100A4000215C3F4F4F4F5F4FE0E0F0E02030A0E0EF
:100A50003A07A0E04A07A0E45A0710F0E1E0F0E00E
:100A600079018A0127C06038710564F5FB01E158FE
:100A7000FF4FD801C7018F779070A070B07080349D
:100A80009105A105B10539F4E7FE0DC080E490E0C1
:100A9000A0E0B0E004C08FE390E0A0E0B0E0E80E9A
:100AA000F91E0A1F1B1F17FF05C016950795F7941F
:100AB000E794319687E016950795F794E7948A9521
:100AC000D1F705C0EE24FF248701EFEFF0E06E2F91
:100AD000679566276795902F9F77D794DD24D794E5
:100AE0008E2F8695492F462B582F5D29B701CA01B5
:100AF0001F910F91FF90EF90DF900895FC01DB01B3
:100B0000408151812281622F6F7770E0221F22275E
:100B1000221F9381892F880F822B282F30E0991F65
:100B20009927991F11969C93119721153105A9F5C5
:100B3000411551056105710511F482E037C082E865
:100B40009FEF13969C938E9312979A01AB0167E0E7
:100B5000220F331F441F551F6A95D1F783E08C93F2
:100B60000DC0220F331F441F551F12968D919C916B
:100B70001397019713969C938E931297203080E0E1
:100B8000380780E0480780E4580758F314962D93FF
:100B90003D934D935C93179708952F3F310579F45A
:100BA000411551056105710519F484E08C93089590
:100BB00064FF03C081E08C9312C01C9210C02F57B9
:100BC000304013963C932E93129783E08C9387E0EA
:100BD000440F551F661F771F8A95D1F770641496CE
:100BE0004D935D936D937C93179708951F93DC014C
:100BF000FB019C91923008F447C08081823008F458
:100C000043C0943051F411961C91843099F5818140
:100C1000682F70E0611B71093FC0843021F0923071
:100C200031F48230B9F18181882389F12DC0119688
:100C30001C9111978230F1F081811817D9F4129626
:100C40002D913C911397828193818217930794F0A1
:100C500028173907BCF014968D919D910D90BC9189
:100C6000A02D2481358146815781281739074A07ED
:100C70005B0718F4112341F00AC082179307A407F9
:100C8000B50740F4112319F061E070E005C06FEF83
:100C90007FEF02C060E070E0CB011F910895DF9309
:100CA000CF93CDB7DEB7A6E2B0E0E6E2F0E0808118
:100CB00080688C93A6E2B0E0E6E2F0E08081846098
:100CC0008C93A6E2B0E0E6E2F0E0808182608C9353
:100CD000A6E2B0E0E6E2F0E0808181608C93A7E2DA
:100CE000B0E0E7E2F0E0808180648C93A7E2B0E0BE
:100CF000E7E2F0E0808180688C93CF91DF910895E6
:100D0000DF93CF930F92CDB7DEB78983A7E2B0E030
:100D1000E7E2F0E090818981892B8C93A6E2B0E034
:100D2000E6E2F0E0808180648C93E6E2F0E080818E
:100D3000882F90E08071907095958795959587950F
:100D40009595879595958795009779F3A6E2B0E0FC
:100D5000E6E2F0E0808180618C930F90CF91DF918B
:100D60000895DF93CF930F92CDB7DEB78983A7E2C3
:100D7000B0E0E7E2F0E090818981892B8C93A6E2D4
:100D8000B0E0E6E2F0E0808180648C93A6E2B0E01F
:100D9000E6E2F0E0808180628C93A0E5B0E0E0E5DF
:100DA000F0E080818F778C93A0E5B0E0E0E5F0E0A3
:100DB00080818F7B8C93A0E5B0E0E0E5F0E080815E
:100DC0008F7D8C93E6E2F0E08081882F90E0807147
:100DD0009070959587959595879595958795959517
:100DE0008795009779F3A6E2B0E0E6E2F0E0808133
:100DF00080618C930F90CF91DF910895DF93CF9313
:100E000000D0CDB7DEB7E4E2F0E08081282F30E0FB
:100E1000E5E2F0E08081882F90E0982F8827822BF0
:100E2000932B9A83898389819A810F900F90CF9118
:100E3000DF910895DF93CF9300D00F92CDB7DEB747
:100E40008B83A7E2B0E0E7E2F0E090818B81892B11
:100E50008C93A6E2B0E0E6E2F0E0808180648C93BF
:100E6000E6E2F0E08081882F90E0807190709595A7
:100E700087959595879595958795959587950097ED
:100E800079F3A6E2B0E0E6E2F0E0808180618C9345
:100E9000E4E2F0E08081282F30E0E5E2F0E08081BC
:100EA000882F90E0982F8827822B932B9A83898311
:100EB00089819A810F900F900F90CF91DF910895C3
:100EC000DF93CF93CDB7DEB72E970FB6F894DEBF82
:100ED0000FBECDBF89836A834B838A81883008F037
:100EE000BBC18981843008F0B7C18981282F30E0E7
:100EF0003E872D878D859E858130910509F47CC0C4
:100F00002D853E85223031052CF48D859E850097F8
:100F100071F0A0C12D853E852230310509F4D1C084
:100F20008D859E858330910509F430C193C18B81F5
:100F3000282F30E03C872B878B859C85813091055D
:100F400009F445C02B853C8522303105C9F08B85DD
:100F50009C85009709F07EC1AAE3B0E0EAE3F0E0E7
:100F60008081482F8A81282F30E081E090E0022E96
:100F700002C0880F991F0A94E2F7842B8C936AC1F0
:100F8000AAE3B0E0EAE3F0E08081482F8A81282FCD
:100F900030E081E090E002C0880F991F2A95E2F7C7
:100FA000809584238C93ABE3B0E0EBE3F0E08081A9
:100FB000482F8A81282F30E081E090E0022E02C085
:100FC000880F991F0A94E2F7842B8C9343C1AAE3FC
:100FD000B0E0EAE3F0E08081482F8A81282F30E0FA
:100FE00081E090E0022E02C0880F991F0A94E2F778
:100FF000809584238C932EC18B81282F30E03A87F3
:10100000298789859A858130910509F445C029850C
:101010003A8522303105C9F089859A85009709F013
:1010200019C1A7E3B0E0E7E3F0E08081482F8A81AF
:10103000282F30E081E090E0022E02C0880F991F37
:101040000A94E2F7842B8C9305C1A7E3B0E0E7E3B1
:10105000F0E08081482F8A81282F30E081E090E005
:1010600002C0880F991F2A95E2F7809584238C93FC
:10107000A8E3B0E0E8E3F0E08081482F8A81282FE0
:1010800030E081E090E0022E02C0880F991F0A94A0
:10109000E2F7842B8C93DEC0A7E3B0E0E7E3F0E057
:1010A0008081482F8A81282F30E081E090E0022E55
:1010B00002C0880F991F0A94E2F7809584238C93CD
:1010C000C9C08B81282F30E038872F838F81988586
:1010D0008130910509F445C02F81388522303105D2
:1010E000C9F08F819885009709F0B4C0A4E3B0E0FF
:1010F000E4E3F0E08081482F8A81282F30E081E00E
:1011000090E0022E02C0880F991F0A94E2F7842B08
:101110008C93A0C0A4E3B0E0E4E3F0E08081482F2A
:101120008A81282F30E081E090E002C0880F991F6B
:101130002A95E2F7809584238C93A5E3B0E0E5E35C
:10114000F0E08081482F8A81282F30E081E090E014
:10115000022E02C0880F991F0A94E2F7842B8C9309
:1011600079C0A4E3B0E0E4E3F0E08081482F8A8115
:10117000282F30E081E090E0022E02C0880F991FF6
:101180000A94E2F7809584238C9364C08B81282F86
:1011900030E03E832D838D819E818130910509F45D
:1011A00045C02D813E8122303105C9F08D819E815F
:1011B000009709F04FC0A1E3B0E0E1E3F0E08081E7
:1011C000482F8A81282F30E081E090E0022E02C073
:1011D000880F991F0A94E2F7842B8C933BC0A1E3FC
:1011E000B0E0E1E3F0E08081482F8A81282F30E0F1
:1011F00081E090E002C0880F991F2A95E2F7809560
:1012000084238C93A2E3B0E0E2E3F0E08081482FF6
:101210008A81282F30E081E090E0022E02C0880F02
:10122000991F0A94E2F7842B8C9314C0A1E3B0E0D9
:10123000E1E3F0E08081482F8A81282F30E081E0CF
:1012400090E0022E02C0880F991F0A94E2F7809561
:1012500084238C931C8202C091E09C838C812E9607
:101260000FB6F894DEBF0FBECDBFCF91DF910895CA
:10127000DF93CF9300D000D00F92CDB7DEB7898334
:101280006A8389818430A0F58981282F30E03D83ED
:101290002C838C819D8181309105D1F02C813D8101
:1012A000223031052CF48C819D81009761F01EC0A5
:1012B0002C813D812230310581F08C819D818330EC
:1012C000910581F013C0EAE3F0E08A8180830EC0CB
:1012D000E7E3F0E08A81808309C0E4E3F0E08A81FB
:1012E000808304C0E1E3F0E08A8180831B8202C036
:1012F00091E09B838B810F900F900F900F900F9038
:10130000CF91DF910895DF93CF9300D000D00F925B
:10131000CDB7DEB789836A834B838981843008F037
:10132000D5C08A81883008F0D1C08981282F30E06B
:101330003D832C838C819D818130910509F443C0CC
:101340002C813D81223031052CF48C819D810097C8
:1013500071F0BCC02C813D812230310509F45FC0A1
:101360008C819D818330910509F485C0AFC08B814C
:101370008130A1F4ABE3B0E0EBE3F0E08081482FF3
:101380008A81282F30E081E090E0022E02C0880F91
:10139000991F0A94E2F7842B8C9398C0ABE3B0E0DA
:1013A000EBE3F0E08081482F8A81282F30E081E054
:1013B00090E0022E02C0880F991F0A94E2F78095F0
:1013C00084238C9383C08B818130A1F4A8E3B0E0A7
:1013D000E8E3F0E08081482F8A81282F30E081E027
:1013E00090E0022E02C0880F991F0A94E2F7842B26
:1013F0008C936CC0A8E3B0E0E8E3F0E08081482F74
:101400008A81282F30E081E090E0022E02C0880F10
:10141000991F0A94E2F7809584238C9357C08B819F
:101420008130A1F4A5E3B0E0E5E3F0E08081482F4E
:101430008A81282F30E081E090E0022E02C0880FE0
:10144000991F0A94E2F7842B8C9340C0A5E3B0E087
:10145000E5E3F0E08081482F8A81282F30E081E0A9
:1014600090E0022E02C0880F991F0A94E2F780953F
:1014700084238C932BC08B818130A1F4A2E3B0E054
:10148000E2E3F0E08081482F8A81282F30E081E07C
:1014900090E0022E02C0880F991F0A94E2F7842B75
:1014A0008C9314C0A2E3B0E0E2E3F0E08081482F27
:1014B0008A81282F30E081E090E0022E02C0880F60
:1014C000991F0A94E2F7809584238C930F900F90D4
:1014D0000F900F900F90CF91DF910895DF93CF93EE
:1014E00000D000D0CDB7DEB789836A83898184308C
:1014F00090F58981282F30E03C832B838B819C8160
:1015000081309105D1F02B813C81223031052CF4C2
:101510008B819C81009761F01EC02B813C81223021
:10152000310581F08B819C818330910581F013C05E
:10153000EBE3F0E08A8180830EC0E8E3F0E08A818B
:10154000808309C0E5E3F0E08A81808304C0E2E3A0
:10155000F0E08A8180830F900F900F900F90CF91D1
:10156000DF910895DF93CF9300D000D000D0CDB7A6
:10157000DEB78A836B8319828A81843008F0A0C029
:101580008B81883008F09CC08A81282F30E03E8310
:101590002D834D815E8141305105B1F18D819E8158
:1015A0008230910534F42D813E812115310571F091
:1015B00084C04D815E814230510509F443C08D8164
:1015C0009E818330910509F45BC077C0E9E3F0E0C8
:1015D0008081482F50E08B81282F30E081E090E01F
:1015E00002C0880F991F2A95E2F79A012823392310
:1015F0008B81882F90E0A90102C0559547958A9567
:10160000E2F7CA01898359C0E6E3F0E08081482F00
:1016100050E08B81282F30E081E090E002C0880FFD
:10162000991F2A95E2F79A01282339238B81882F65
:1016300090E0A90102C0559547958A95E2F7CA0145
:1016400089833BC0E3E3F0E08081482F50E08B8149
:10165000282F30E081E090E002C0880F991F2A9582
:10166000E2F79A01282339238B81882F90E0A90182
:1016700002C0559547958A95E2F7CA0189831DC036
:10168000E0E3F0E08081482F50E08B81282F30E0AC
:1016900081E090E002C0880F991F2A95E2F79A0135
:1016A000282339238B81882F90E0A90102C055950A
:1016B00047958A95E2F7CA01898359815C8301C005
:1016C0001C828C8126960FB6F894DEBF0FBECDBF6C
:1016D000CF91DF910895DF93CF9300D000D00F9288
:1016E000CDB7DEB78A838A818430B0F519828A81CA
:1016F000282F30E03D832C838C819D8181309105A2
:10170000D1F02C813D81223031052CF48C819D81DA
:10171000009761F01EC02C813D812230310581F09F
:101720008C819D818330910581F013C0E9E3F0E065
:10173000808189830EC0E6E3F0E08081898309C05F
:10174000E3E3F0E08081898304C0E0E3F0E080819E
:10175000898399819B8301C01B828B810F900F909D
:101760000F900F900F90CF91DF9108950F931F93DB
:10177000DF93CF93CDB7DEB7CD54D0400FB6F894FA
:10178000DEBF0FBECDBFFE01E35BFF4F81E0808374
:1017900082E060E040E00E94600782E061E040E0BB
:1017A0000E94600782E062E040E00E94600781E002
:1017B0006FEF0E943809FE01E75BFF4F80E090E089
:1017C000A0E2B2E480839183A283B3838E010B5B9A
:1017D0001F4FFE01E75BFF4F608171818281938122
:1017E00020E030E04AEF54E40E941F02DC01CB010C
:1017F000F80180839183A283B383FE01EB5BFF4FEB
:10180000608171818281938120E030E040E85FE374
:101810000E942504882344F4FE01ED5BFF4F81E024
:1018200090E09183808364C0FE01EB5BFF4F608199
:1018300071818281938120E03FEF4FE757E40E945E
:10184000C50318160CF043C0FE01E75BFF4F608133
:1018500071818281938120E030E040E251E40E9476
:101860001F02DC01CB018E010D5B1F4FBC01CD01BE
:101870000E944900DC01CB01F801918380831FC0E5
:10188000FE01EF5BFF4F88EC90E091838083FE01C7
:10189000EF5BFF4F808191810197F1F7FE01EF5BD4
:1018A000FF4F91838083DE01AD5BBF4FFE01ED5B97
:1018B000FF4F80819181019711969C938E93FE0139
:1018C000ED5BFF4F808191810097D1F624C08E019E
:1018D0000D5B1F4FFE01EB5BFF4F608171818281C9
:1018E00093810E944900DC01CB01F8019183808340
:1018F000FE01ED5BFF4F80819181FE01FF96918398
:101900008083FE01FF96808191810197F1F7FE01AE
:10191000FF969183808388E30E94950E80E090E09B
:10192000A0E2B2E48BAF9CAFADAFBEAF6BAD7CAD10
:101930008DAD9EAD2BEA3AEA4AE250E40E941F02C6
:10194000DC01CB018FAB98AFA9AFBAAF6FA978AD6F
:1019500089AD9AAD20E030E040E85FE30E942504C5
:1019600088231CF481E08EAB91C06FA978AD89AD5E
:101970009AAD20E030E04FE753E40E94C50318160B
:101980000CF07BC06BAD7CAD8DAD9EAD20E030E04A
:101990004AE754E40E941903DC01CB018AAB9BABFC
:1019A000ACABBDAB6AA97BA98CA99DA920E030E0B6
:1019B0004AEF54E40E941F02DC01CB018EA79FA7CF
:1019C000A8ABB9AB6EA57FA588A999A920E030E0A6
:1019D00040E85FE30E94250488232CF481E090E036
:1019E0009DA78CA73FC06EA57FA588A999A920E0D7
:1019F0003FEF4FE757E40E94C50318164CF56AA95C
:101A00007BA98CA99DA920E030E040E251E40E942E
:101A10001F02DC01CB01BC01CD010E944900DC01A9
:101A2000CB019DA78CA70FC088EC90E09BA78AA74D
:101A30008AA59BA50197F1F79BA78AA78CA59DA5D1
:101A400001979DA78CA78CA59DA5009769F724C039
:101A50006EA57FA588A999A90E944900DC01CB0148
:101A60009DA78CA78CA59DA599A788A788A599A5B2
:101A70000197F1F799A788A70FC06FA978AD89AD35
:101A80009AAD0E944900DC01CB018EAB8EA98FA3D9
:101A90008FA18A95F1F78FA38CE00E94950E80E0CC
:101AA00090E0A0E2B2E48BA39CA3ADA3BEA36BA184
:101AB0007CA18DA19EA12BEA3AEA4AE250E40E9461
:101AC0001F02DC01CB018F8F98A3A9A3BAA36F8D4E
:101AD00078A189A19AA120E030E040E85FE30E946C
:101AE000250488231CF481E08E8F91C06F8D78A12E
:101AF00089A19AA120E030E04FE753E40E94C5039A
:101B000018160CF07BC06BA17CA18DA19EA120E0DA
:101B100030E04AE754E40E941903DC01CB018A8FCC
:101B20009B8FAC8FBD8F6A8D7B8D8C8D9D8D20E0C2
:101B300030E04AEF54E40E941F02DC01CB018E8B9F
:101B40009F8BA88FB98F6E897F89888D998D20E0B2
:101B500030E040E85FE30E94250488232CF481E014
:101B600090E09D8B8C8B3FC06E897F89888D998D8D
:101B700020E03FEF4FE757E40E94C50318164CF5ED
:101B80006A8D7B8D8C8D9D8D20E030E040E251E4AC
:101B90000E941F02DC01CB01BC01CD010E94490063
:101BA000DC01CB019D8B8C8B0FC088EC90E09B8B74
:101BB0008A8B8A899B890197F1F79B8B8A8B8C8909
:101BC0009D8901979D8B8C8B8C899D89009769F7E6
:101BD00024C06E897F89888D998D0E944900DC011F
:101BE000CB019D8B8C8B8C899D89998B888B888967
:101BF00099890197F1F7998B888B0FC06F8D78A128
:101C000089A19AA10E944900DC01CB018E8F8E8DA3
:101C10008F878F858A95F1F78F8781E00E94950ED7
:101C200080E090E0A0E0B0E48B879C87AD87BE8722
:101C30006B857C858D859E8520E030E04AEF54E4FD
:101C40000E941F02DC01CB018F839887A987BA8786
:101C50006F81788589859A8520E030E040E85FE3F0
:101C60000E94250488232CF481E090E09E838D83DC
:101C70003FC06F81788589859A8520E03FEF4FE7E7
:101C800057E40E94C50318164CF56B857C858D853D
:101C90009E8520E030E040E251E40E941F02DC011A
:101CA000CB01BC01CD010E944900DC01CB019E8328
:101CB0008D830FC088EC90E09C838B838B819C810B
:101CC0000197F1F79C838B838D819E8101979E8381
:101CD0008D838D819E81009769F714C06F8178850F
:101CE00089859A850E944900DC01CB019E838D8302
:101CF0008D819E819A83898389819A810197F1F7E9
:101D00009A83898386E00E94950EFE01E35BFF4F74
:101D10008081C35BDF4F0FB6F894DEBF0FBECDBF2F
:101D2000CF91DF911F910F910895DF93CF93CDB79E
:101D3000DEB760970FB6F894DEBF0FBECDBF888BBD
:101D40001F8682E060E040E00E94830982E061E05B
:101D500040E00E94830981E068890E946E0A82E067
:101D600062E041E00E94830980E090E0A0E8BFE3E8
:101D70008B879C87AD87BE876B857C858D859E858F
:101D800020E030E04AEF54E40E941F02DC01CB0166
:101D90008F839887A987BA876F81788589859A8587
:101DA00020E030E040E85FE30E94250488232CF423
:101DB00081E090E09E838D833FC06F817885898527
:101DC0009A8520E03FEF4FE757E40E94C5031816BD
:101DD0004CF56B857C858D859E8520E030E040E26A
:101DE00051E40E941F02DC01CB01BC01CD010E9425
:101DF0004900DC01CB019E838D830FC088EC90E00D
:101E00009C838B838B819C810197F1F79C838B83CF
:101E10008D819E8101979E838D838D819E81009708
:101E200069F714C06F81788589859A850E94490079
:101E3000DC01CB019E838D838D819E819A83898372
:101E400089819A810197F1F79A83898382E062E020
:101E500040E00E9483091F868F8560960FB6F89434
:101E6000DEBF0FBECDBFCF91DF910895DF93CF933B
:101E7000CDB7DEB760970FB6F894DEBF0FBECDBF0B
:101E8000888B1F8682E060E041E00E94830982E047
:101E900061E040E00E94830981E068890E946E0A47
:101EA00082E062E041E00E94830980E090E0A0E8E7
:101EB000BFE38B879C87AD87BE876B857C858D85CF
:101EC0009E8520E030E04AEF54E40E941F02DC01CE
:101ED000CB018F839887A987BA876F817885898599
:101EE0009A8520E030E040E85FE30E9425048823E3
:101EF0002CF481E090E09E838D833FC06F817885D4
:101F000089859A8520E03FEF4FE757E40E94C5039B
:101F100018164CF56B857C858D859E8520E030E01C
:101F200040E251E40E941F02DC01CB01BC01CD0163
:101F30000E944900DC01CB019E838D830FC088EC99
:101F400090E09C838B838B819C810197F1F79C832C
:101F50008B838D819E8101979E838D838D819E8150
:101F6000009769F714C06F81788589859A850E94EA
:101F70004900DC01CB019E838D838D819E819A83F4
:101F8000898389819A810197F1F79A83898382E015
:101F900062E040E00E9483091F868F8560960FB63D
:101FA000F894DEBF0FBECDBFCF91DF910895DF93D0
:101FB000CF9300D000D00F92CDB7DEB79D838C8336
:101FC0008C819D819E012F5F3F4FB9014AE050E017
:101FD0000E94CC16CE0101960E94F60F0F900F9032
:101FE0000F900F900F90CF91DF910895DF93CF93D3
:101FF00000D0CDB7DEB79A8389830BC0E981FA811F
:10200000208189819A8101969A838983822F0E94F7
:10201000360FE981FA818081882381F70F900F9034
:10202000CF91DF910895DF93CF9300D000D00F922E
:10203000CDB7DEB78A836B8319828A81282F30E07F
:102040003D832C838C819D818130910531F02C81E1
:102050003D812230310531F00AC08B8181580E94C8
:10206000950E06C08B8181540E94950E01C0198285
:1020700089810F900F900F900F900F90CF91DF916B
:102080000895DF93CF93CDB7DEB788E10E94950E18
:10209000CF91DF910895DF93CF93CDB7DEB78CE179
:1020A0000E94950ECF91DF910895DF93CF9300D0DA
:1020B00000D000D0CDB7DEB79E838D8380E40E9430
:1020C000950E1C821B820FC02B813C818D819E81CD
:1020D000FC01E20FF31F80810E94360F8B819C81EF
:1020E00001969C838B838B819C818034910564F362
:1020F00080E80E94950E1A82198208C089810E9488
:10210000360F89819A8101969A83898389819A8180
:10211000883091059CF326960FB6F894DEBF0FBE6B
:10212000CDBFCF91DF910895DF93CF9300D000D042
:10213000CDB7DEB79C838B838B819C8120E8813077
:10214000920730F58B819C81880F892F881F990B0E
:1021500091958A838A8181958983E2E5F0E089817E
:102160008083E3E5F0E085E08083E8E5F0E08081CE
:10217000882F90E0817090700097B9F3E3E5F0E06C
:102180001082A8E5B0E0E8E5F0E0808181608C9302
:102190000F900F900F900F90CF91DF910895DF93E4
:1021A000CF9300D000D00F92CDB7DEB789837B8369
:1021B0006A83E2E5F0E0898180838A819B819D8347
:1021C0008C838C819D818034910531F18C819D813E
:1021D0008134910550F48C819D81009799F08C8118
:1021E0009D818830910599F025C08C819D8121E0E9
:1021F00080309207B1F08C819D8124E0803092077D
:10220000A9F018C0E3E5F0E081E0808313C0E3E5C6
:10221000F0E082E080830EC0E3E5F0E083E08083BD
:1022200009C0E3E5F0E084E0808304C0E3E5F0E08A
:1022300085E08083A9E5B0E0E9E5F0E08081816098
:102240008C930F900F900F900F900F90CF91DF9184
:102250000895DF93CF9300D000D000D0CDB7DEB784
:1022600089836A835C834B83E2E5F0E08981808324
:10227000A3E5B0E0E3E5F0E0808188608C938B819A
:102280009C819E838D838D819E818034910531F167
:102290008D819E818134910550F48D819E810097BE
:1022A00099F08D819E818830910599F025C08D81AE
:1022B0009E8121E080309207B1F08D819E8124E0E3
:1022C00080309207A9F018C0E3E5F0E081E0808358
:1022D00013C0E3E5F0E082E080830EC0E3E5F0E0C8
:1022E00083E0808309C0E3E5F0E084E0808304C0FC
:1022F000E3E5F0E085E08083ECE5F0E08A8180832F
:10230000A9E5B0E0E9E5F0E0808182608C93269653
:102310000FB6F894DEBF0FBECDBFCF91DF91089509
:10232000DF93CF93CDB7DEB7AFE5B0E0EFE5F0E0F8
:10233000808180688C93CF91DF910895DF93CF9354
:1023400000D000D00F92CDB7DEB789837B836A833C
:10235000ECE5F0E0898180838A819B819D838C8379
:102360008C819D818034910531F18C819D818134F6
:10237000910550F48C819D81009799F08C819D810D
:102380008830910599F025C08C819D8121E08030B5
:102390009207B1F08C819D8124E080309207A9F0F2
:1023A00018C0E3E5F0E081E0808313C0E3E5F0E0EE
:1023B00082E080830EC0E3E5F0E083E0808309C023
:1023C000E3E5F0E084E0808304C0E3E5F0E085E04D
:1023D0008083A3E5B0E0E3E5F0E0808180648C9346
:1023E000A3E5B0E0E3E5F0E0808188608C93A3E5AD
:1023F000B0E0E3E5F0E0808180628C93A9E5B0E095
:10240000E9E5F0E0808181608C930F900F900F9050
:102410000F900F90CF91DF910895DF93CF9300D06D
:1024200000D00F92CDB7DEB789837B836A83ECE55A
:10243000F0E0898180838A819B819D838C838C815C
:102440009D818034910531F18C819D81813491058C
:1024500050F48C819D81009799F08C819D8188300A
:10246000910599F025C08C819D8121E080309207F3
:10247000B1F08C819D8124E080309207A9F018C0D2
:10248000E3E5F0E081E0808313C0E3E5F0E082E083
:1024900080830EC0E3E5F0E083E0808309C0E3E5DC
:1024A000F0E084E0808304C0E3E5F0E085E0808331
:1024B000A3E5B0E0E3E5F0E0808180648C93A3E5E0
:1024C000B0E0E3E5F0E0808188608C93A3E5B0E0C4
:1024D000E3E5F0E0808180628C93A3E5B0E0E3E582
:1024E000F0E0808180628C93A9E5B0E0E9E5F0E05E
:1024F000808181608C930F900F900F900F900F90C0
:10250000CF91DF910895DF93CF9300D000D0CDB766
:10251000DEB79A838983EDE4F0E01082ECE4F0E02A
:10252000108289819A819C838B838B819C818034EA
:10253000910531F18B819C818134910550F48B811F
:102540009C81009799F08B819C818830910599F04E
:1025500025C08B819C8121E080309207B1F08B8176
:102560009C8124E080309207A9F018C0EEE4F0E0EE
:1025700081E0808313C0EEE4F0E082E080830EC04F
:10258000EEE4F0E083E0808309C0EEE4F0E084E074
:10259000808304C0EEE4F0E085E08083A9E5B0E04C
:1025A000E9E5F0E0808184608C930F900F900F90AC
:1025B0000F90CF91DF910895DF93CF93CDB7DEB722
:1025C000E6E4F0E08081282F30E0E7E4F0E080816D
:1025D000882F90E09695982F882797958795822B3E
:1025E000932BCF91DF910895DF93CF93CDB7DEB7D3
:1025F000ECE4F0E08081282F30E0EDE4F0E0808131
:10260000882F90E09695982F882797958795822B0D
:10261000932BCF91DF910895DF93CF9300D000D01B
:10262000CDB7DEB769837A838B839C83E0E4F0E0E7
:1026300089819A81AB81BC81892F9A2FAB2FBB27CF
:102640008083E9E2F0E089818083EAE2F0E088E1DA
:102650008083E0E4F0E08EE880830F900F900F908D
:102660000F90CF91DF910895DF93CF93CDB7DEB771
:10267000EBE2F0E080818823DCF7ECE2F0E080819F
:10268000CF91DF910895DF93CF930F92CDB7DEB74F
:102690008983EBE2F0E08081882F90E08072907077
:1026A0000097B9F3ECE2F0E0898180830F90CF913D
:1026B000DF910895DF93CF9300D000D0CDB7DEB780
:1026C0009C838B831A8219820FC029813A818B8166
:1026D0009C81FC01E20FF31F80810E9443138981DA
:1026E0009A8101969A83898329813A818B819C8181
:1026F000FC01E20FF31F8081882339F70F900F90C0
:102700000F900F90CF91DF910895DF93CF9300D07A
:1027100000D0CDB7DEB78C838C81882F90E09E01EE
:102720002F5F3F4FB9014AE050E00E94CC16CE0126
:1027300001960E945A130F900F900F900F90CF9117
:10274000DF910895DF93CF93CDB7DEB71092960057
:102750001092A10081E08093970010929E0083E088
:1027600060E041E00E94600783E061E040E00E9499
:1027700060070E94B60B0E944F0663E370E080E0A2
:1027800090E00E940C1380E06CE740E051E00E9472
:1027900029110E9490118091A1008130E1F781E020
:1027A00061E00E94131080919C0090919D000E9416
:1027B000D70F80919C0090919D000E944313EBCF16
:1027C0001F920F920FB60F9211242F933F934F93A6
:1027D0005F936F937F938F939F93AF93BF93EF9389
:1027E000FF93DF93CF9300D0CDB7DEB780E00E9498
:1027F0001A079093A00080939F008091740090919D
:102800007500A0917600B09177000296A11DB11DD0
:102810008093740090937500A0937600B093770036
:102820008091740090917500A0917600B09177002E
:102830009C018091780090917900A0917A00B091EC
:102840007B00A901481B590BCA0190939900809302
:10285000980080916C0090916D009C0180919F0088
:102860009091A0008217930760F580919800909155
:102870009900FC01809172009091730025E030E096
:10288000B9010E943116CB019C01C901880F991F23
:10289000820F931F8E179F07A0F480916A0090917A
:1028A0006B009C0180919F009091A000821793077C
:1028B00040F480919F009091A00090936B008093D2
:1028C0006A0080916C0090916D009C0180919F0046
:1028D0009091A00028173907A0F480919A00909158
:1028E0009B009C0180919F009091A00028173907C0
:1028F00040F480919F009091A00090939B00809362
:102900009A0080919800909199008B3F91050CF46A
:1029100011C180916C0090916D009C0180919F008D
:102920009091A0002817390708F004C18091960003
:10293000882309F0FFC08091980090919900FC01D4
:10294000809172009091730025E030E0B9010E94FF
:102950003116CB019C01C901880F991F820F931F6B
:102960008E179F0708F0E6C081E080939600809163
:10297000740090917500A0917600B09177009C0151
:102980008091780090917900A0917A00B0917B00BD
:10299000A901481B590BCA019093730080937200E0
:1029A0008091740090917500A0917600B0917700AD
:1029B0008093780090937900A0937A00B0937B0085
:1029C00080919E00882341F110929E001092810018
:1029D000109280001AC02091800030918100809177
:1029E000720090917300AC01C901880F991FFC011E
:1029F000EE57FF4F5183408380918000909181007A
:102A00000196909381008093800080918000909146
:102A100081008A309105FCF280919700882331F083
:102A20001092970081E080939E0006C110927F0073
:102A300010927E00109281001092800036C040916A
:102A400080005091810080918000909181000196DA
:102A5000880F991FFC01EE57FF4F20813181CA0179
:102A6000880F991FFC01EE57FF4F3183208380911F
:102A7000800090918100880F991FFC01EE57FF4F55
:102A80002081318180917E0090917F00820F931F81
:102A900090937F0080937E008091800090918100D0
:102AA00001969093810080938000809180009091A6
:102AB0008100893091051CF2809172009091730021
:102AC000909395008093940020919400309195000C
:102AD00080917E0090917F00820F931F90937F00E2
:102AE00080937E0080917E0090917F002AE030E00C
:102AF000B9010E944516CB0190937F0080937E0020
:102B000080917E0090917F009C01442737FD409585
:102B1000542F80E69AEEA0E0B0E0BC01CD010E9407
:102B20005816DA01C90190939D0080939C0081E0C2
:102B30008093A10080916C0090916D009C01809128
:102B40009F009091A0008217930708F046C08091E3
:102B50009600813009F041C01092960020919A00B1
:102B600030919B0080916A0090916B00A901481BF5
:102B7000590BCA0190936F0080936E0080916E0094
:102B800090916F009A83898389819A81992334F483
:102B900049815A814F5F5F4F5A83498389819A8166
:102BA000959587959C0180916A0090916B00820FAA
:102BB000931F90936D0080936C0080916C009091B6
:102BC0006D0090939B0080939A0080916C0090918F
:102BD0006D0090936B0080936A00809198009091B3
:102BE000990059E0853C95073CF180E092E0909394
:102BF0006D0080936C0080E092E090939B00809346
:102C00009A0080E092E090936B0080936A0080913C
:102C1000740090917500A0917600B0917700809338
:102C2000780090937900A0937A00B0937B0081E0C4
:102C30008093970010929E000F900F90CF91DF919C
:102C4000FF91EF91BF91AF919F918F917F916F9184
:102C50005F914F913F912F910F900FBE0F901F905A
:102C60001895AA1BBB1B51E107C0AA1FBB1FA617C3
:102C7000B70710F0A61BB70B881F991F5A95A9F725
:102C800080959095BC01CD01089597FB092E0726EC
:102C90000AD077FD04D0E5DF06D000201AF4709545
:102CA00061957F4F0895F6F7909581959F4F089510
:102CB00097FB092E05260ED057FD04D014D00AD05C
:102CC000001C38F450954095309521953F4F4F4F5B
:102CD0005F4F0895F6F790958095709561957F4FB9
:102CE0008F4F9F4F0895A1E21A2EAA1BBB1BFD0117
:102CF0000DC0AA1FBB1FEE1FFF1FA217B307E407DB
:102D0000F50720F0A21BB30BE40BF50B661F771F32
:102D1000881F991F1A9469F7609570958095909512
:102D20009B01AC01BD01CF0108952F923F924F92BC
:102D30005F926F927F928F929F92AF92BF92CF924B
:102D4000DF92EF92FF920F931F93CF93DF93CDB754
:102D5000DEB7CA1BDB0B0FB6F894DEBF0FBECDBFCC
:102D600009942A88398848885F846E847D848C849D
:102D70009B84AA84B984C884DF80EE80FD800C81A6
:102D80001B81AA81B981CE0FD11D0FB6F894DEBF89
:102D90000FBECDBFED010895FB019F01E8944230C5
:102DA000C4F04532B4F44A3029F497FB1EF49095F0
:102DB00081959F4F642F77270E943116805D8A335B
:102DC0000CF0895D8193CB010097A1F716F45DE2C9
:102DD00051931082C9010C94ED16DC01FC01672FA0
:102DE00071917723E1F7329704C07C916D937083E2
:0E2DF0006291AE17BF07C8F30895F894FFCFA5
:102DFE00000000000000000000020002000164005C
:042E0E000D00580259
:00000001FF
